:020000040800F2
:10000000D02E0020351D0008D10D0008D30D0008AA
:10001000D70D0008DB0D0008DF0D00080000000010
:10002000000000000000000000000000E30D0008D8
:10003000E50D000800000000E70D0008E90D0008CC
:100040003F0D00084F1D00084F1D00084F1D000800
:100050004F1D00084F1D00084F1D00084F1D0008D0
:100060004F1D00084F1D00084F1D00084F1D0008C0
:100070004F1D00084F1D00084F1D00084F1D0008B0
:100080004F1D00084F1D00084F1D00084F1D0008A0
:100090004F1D00084F1D00084F1D00084F1D000890
:1000A0004F1D00084F1D00084F1D00084F1D000880
:1000B0004F1D00084F1D00084F1D00084F1D000870
:1000C0004F1D00084F1D00084F1D00084F1D000860
:1000D0004F1D00084F1D0008A51C00084F1D0008FB
:1000E0004F1D00084F1D00084F1D000800F002F8CA
:1000F00000F03AF80AA090E8000C82448344AAF188
:100100000107DA4501D100F02FF8AFF2090EBAE885
:100110000F0013F0010F18BFFB1A43F0010318473B
:10012000FC4000001C410000103A24BF78C878C190
:10013000FAD8520724BF30C830C144BF04680C60ED
:10014000704700000023002400250026103A28BF35
:1001500078C1FBD8520728BF30C148BF0B60704739
:100160001FB51FBD10B510BD03F07EF91146FFF796
:10017000F7FF00F047FC03F0B0F903B4FFF7F2FF1C
:1001800003BC01F033FD000070B506460C46154671
:100190007EBBFE4AB2F90010002901DB0A4600E0EE
:1001A0004A42322A0ADA601B002801DB024600E0DC
:1001B00042421E2A02DA0120F5490870601B82289B
:1001C00047DDF3480078012843D1F2480078401C0D
:1001D000F0490870F0480088A030EF490880EFA08F
:1001E00003F004F90020EA4908700120EC49086096
:1001F0002FE0FFE7E54AB2F90010002901DB0A46CB
:1002000000E04A42322A0ADA601B002801DB02467B
:1002100000E042421E2A02DA0120DD490870601B1C
:10022000462816DDDA480078012812D1DD4800782A
:10023000401CDC490870D84800885030D6490880F6
:10024000D9A003F0D3F80020D14908700120D44987
:10025000086070BD2DE9F04706460D46D349284693
:1002600003F0BAFE10D2D249304603F03DFC81467D
:10027000D04903F0A7FC8046CF4903F0E1FD0746D3
:1002800003F062FD044613E0CC49304603F0D6FE8D
:100290008246CB4903F096FC8146C74903F0D0FD66
:1002A0008046C54903F020FC074603F04DFD044697
:1002B0002046BDE8F0871E2001E0411EC8B200289C
:1002C000FBD1704700B54020BE490860FFF7F3FF3F
:1002D0008020BC490860FFF7EEFF4020B949091FA4
:1002E0000860FFF7E8FF8020B649091F0860FFF7A4
:1002F000E2FF00BD00B54020B2490860FFF7DBFF18
:100300008020B049091F0860FFF7D5FF4020AD49A4
:10031000091F0860FFF7CFFF4020AA490860FFF7D8
:10032000CAFF00BD00B5082300228020A549091F8F
:10033000086014E05006020E4020A2490860FFF752
:10034000BAFF40209F49091F0860FFF7B4FF9D488E
:100350000C38006800F0800008B142F00102181E5D
:10036000A3F10101CBB2E5D14020964908601046C7
:1003700000BD00B5402093490860FFF79CFF802036
:100380009049091F0860FFF796FF40208D49091F1B
:100390000860FFF790FF8B480C38006800F0800081
:1003A00030B1402087490860FFF785FF002000BD7D
:1003B000402084490860FFF77EFF0120F7E700B581
:1003C0000246082319E040207E490860FFF773FFCA
:1003D00002F0800020B180207A49091F086002E005
:1003E0008020784908605006020EFFF764FF402025
:1003F0007449091F0860FFF75EFF181EA3F1010191
:10040000CBB2E0D140206F49086000BD00B580202C
:100410006C49091F086040200860FFF74CFF6948DD
:100420000C38006808B9012000E0002000F08000CE
:1004300008B1002000BD802062490860FFF73BFF43
:1004400060480C38006800F0800008B10020F1E737
:1004500080205C490860FFF72EFF0120EAE770B5B5
:1004600004460D46FFF7D2FF08B9002070BD2046B4
:10047000FFF7A5FFFFF77DFF18B9FFF723FF002067
:10048000F4E72846FFF79BFFFFF773FFFFF7BEFF78
:10049000611CC8B2FFF793FFFFF76BFFFFF742FF46
:1004A0000646FFF727FFFFF70DFF3046DEE72DE991
:1004B000F0414421D020FFF7D2FF43490870432187
:1004C000D020FFF7CCFF40494870084600784978B3
:1004D00040EA012000B23D4908800846B0F900001A
:1004E00003F0C1F906464FF06632394B03F034F899
:1004F000044603F089F900B2344908804621D0202F
:10050000FFF7ADFF304988704521D020FFF7A7FFE6
:100510002D49C87008468078C97840EA012000B2A9
:100520002C4908800846B0F9000003F09CF9064603
:100530004FF06632264B03F00FF8044603F064F9DF
:1005400000B2244908804821D020FFF788FF1E49C7
:1005500008714721D020FFF782FF1B4948710846E8
:100560000079497940EA012000B20849088008462C
:10057000B0F9000003F077F906464FF06632144BED
:1005800002F0EAFF044603F03FF925E046000020B0
:100590005400002055000020580000207700000083
:1005A00050000020560000207000000000000C42A7
:1005B00000407E440000FA440000344300C075440B
:1005C0000000FAC4140C014030100020420000204A
:1005D000666630404400002000B2FE4908803C219D
:1005E000D020FFF73CFFFC4908723B21D020FFF7E9
:1005F00036FFF94948720846007A497A40EA0120F4
:1006000000B2F64908800846B0F9000003F02BF963
:1006100006464FF06632F24B02F09EFF044603F0AE
:10062000F3F800B2ED4908803E21D020FFF717FF14
:10063000E94988723D21D020FFF711FFE649C872D1
:100640000846807AC97A40EA012000B2E54908806C
:100650000846B0F9000003F006F906464FF066328E
:10066000DF4B02F079FF044603F0CEF800B2DD491B
:1006700008804021D020FFF7F2FED74908733F21C0
:10068000D020FFF7ECFED44948730846007B497B35
:1006900040EA012000B2D44908800846B0F90000C1
:1006A00003F0E1F806464FF06632CD4B02F054FFFE
:1006B000044603F0A9F800B2CB490880BDE8F081F8
:1006C0002DE9F84F04464FF000090121204602F0C1
:1006D000F8FC00BF0221204602F064FE0028F9D099
:1006E000204602F081FD009003F062FB83464FF04C
:1006F0008B4103F067FA824603F0CAF907464FF0D0
:100700006632BA4B03F0C6F8054602F0F3FE8146A6
:100710004846BDE8F88F00B587B001214FF401705D
:1007200001F044FE2020ADF8040003208DF80600FF
:1007300000208DF8070001A9AD4801F07BFB0020E7
:1007400002908DF80C008DF80D004FF4602004909D
:100750000020059001208DF8180002A9A54802F09C
:1007600044FC002301220521A24802F0D6FC01210D
:10077000A04802F066FC9F4802F085FC00BF9D483F
:1007800002F086FC0028FAD19A4802F08BFC00BFE8
:10079000984802F08CFC0028FAD107B000BD10B5D3
:1007A000944802F0FBFBFFF7B6FF10BD01B509E06E
:1007B000002000E0401C4CF250318842FAD30099EE
:1007C000491E009100990029F2D108BD41F28830FC
:1007D00000E0401E0028FCD1704770B506460C466C
:1007E0001546FFF713FE08B9002070BD3046FFF72D
:1007F000E6FDFFF7BEFD18B9FFF764FD0020F4E742
:100800002046FFF7DCFDFFF7B4FD2846FFF7D7FDD4
:10081000FFF7AFFDFFF756FDFFF7D8FF0120E4E734
:1008200000B500226B21D020FFF7D7FF0722192146
:10083000D020FFF7D2FF06221A21D020FFF7CDFFEC
:1008400018221B21D020FFF7C8FF01221C21D02035
:10085000FFF7C3FF00BD08B54020ADF8000003203E
:100860008DF8020010208DF803006946624801F0FF
:10087000E1FA8020ADF8000003208DF8020010207E
:100880008DF8030069465C4801F0D4FA08BD00B554
:1008900087B00121C80201F089FD0121480401F05F
:1008A00092FD0020ADF80400ADF806004FF4007092
:1008B000ADF808000020ADF80A0001A94F4801F08A
:1008C00091FE4FF4165003900020ADF81000ADF8E3
:1008D0001200ADF81400ADF818000C20ADF81600A9
:1008E00003A9464801F009FE40F22551434801F0B2
:1008F00078FF012240F22551404801F096FE012187
:100900003E4801F086FE07B000BD08B501213C203D
:1009100001F04CFD0420ADF8000018208DF8030014
:1009200003208DF802006946314801F083FA08205F
:10093000ADF8000004208DF8030069462C4801F052
:1009400079FA08BD10B501F0C3FB4FF4803001F017
:10095000DFFB01F01CFC2A490870084600780128DA
:1009600026D1002001F059FC002001F068FC4FF472
:10097000806001F05BFC022002F032F8102002F0EF
:1009800043F84FF4E0114FF4803001F029FC0120CE
:1009900001F032FC00BF392001F0DDFB0028FAD065
:1009A000022001F02CFC00BF01F032FC0828FBD132
:1009B00001210C2001F0FAFC0121302001F0F6FCAD
:1009C0000121C02001F0F2FC012140F2011001F0F0
:1009D000EDFC10BD46000020301000204800002033
:1009E000666630404A0000204C00002066660A40DF
:1009F0000008014000240140000C01400044004078
:100A000004000020012700250026FFF79BFFFFF7C9
:100A10007CFFFFF73CFFFFF71EFF0A20FFF7C6FE33
:100A2000FFF7FEFEFFF7BBFE4FF4A06001F026FFCC
:100A300001F072F84FF4165001F0E7F800F0E6FA12
:100A400000F00AFDC649002000F011FC00F03AFC5D
:100A50004FF4FA70FFF7AAFEFFF7A1FEC148FFF7B7
:100A60002FFEC1A002F0C2FC47E0FFF720FDBF4807
:100A7000B0F9000003F084F98046BD48B0F90000E9
:100A800003F07EF981464146FFF7E4FBB94908606F
:100A9000B94AB2F90010002901DB0A4600E04A42D7
:100AA000B64BB3F90000002801DB034600E04342E7
:100AB0001A44B2F5FA7F10DDB14A1268012A0CD14E
:100AC000012E01D1002600E00126AEA002F08EFC2E
:100AD00000250020AA49086004E0681CC5B20A2D60
:100AE00000DD0025012F02D10027A248046822461C
:100AF000A04801683046FFF747FBB6E73EB5002047
:100B0000A1490860A148A24908600020A1490860E5
:100B100064209D4908603AE09F489B49096850F865
:100B200021109948006864389B4A42F820109B487D
:100B30009549096850F82110934800686438974A2D
:100B400042F8201094489049096850F821009049D3
:100B50000968884206D290488B49096850F82100FC
:100B60008B4908608C488849096850F821008949F8
:100B70000968884206D988488349096850F82100E5
:100B80008449086080480068401C7F4908607E48AE
:100B90000068B0F5FA7FBFDB4FF4C8707A4908608F
:100BA00089E079480068401E7B4951F820007C4963
:100BB000086000BF7B4800680128FBD0774A724B71
:100BC0001B6802EB8301744A6F4B1B6802EB8300C6
:100BD00000F0D5FB70486C49096850F82100704955
:100BE0000968884231D96C49674A126851F8221065
:100BF0006B4A1268881A03F0DBF86B490860654994
:100C00000968634A1268881A03F0D2F8044621463C
:100C10006548006802F0D6FF63490860634962488E
:100C2000006803F00DF9604908600846006803F0A9
:100C30008BF85F490968081A5D4908600846006832
:100C4000002833DA0020086030E053494E4A126829
:100C500051F82210524A1268501A03F0A9F852496A
:100C600008604C4909684A4A1268881A03F0A0F8DB
:100C7000044621464C48006802F0A4FF4A49086037
:100C80004A494948006803F0DBF8474908600846CC
:100C9000006803F059F84649096808444449086067
:100CA00008460068FF2801DDFF200860364800681C
:100CB000401C3549086034480068B0F5FA7FFFF6FB
:100CC00070AF3C483C493D4A3D4BCDE90021029084
:100CD000314A3C480168314800F09EFC36480068C3
:100CE0003EBD00B5402038490860FFF7E4FA802097
:100CF00035490860FFF7DFFA40203349091F0860D3
:100D0000FFF7D9FA402030490860FFF7D4FA00BD58
:100D100008B54FF4E06001F0B1FD00208DF800004F
:100D20008DF80100684601F0AEFD08BD01B502E096
:100D30000098401E009000980028F9D108BD10B519
:100D4000502001F032FE01F041FE10BD10B5044606
:100D500021461E4801F0CAFC0120FFF727FD10BD07
:100D6000190000200024014031000000480000204C
:100D70004A000020380000204200002044000020EB
:100D8000500000207A00000028000020FFFF030030
:100D90001C0000202000002060080020900000209F
:100DA00024000020308121423000002000007F43D9
:100DB0002C0000201800002014000020100000204B
:100DC0000C00002008000020140C014000440040EA
:100DD000704700BFFEE700BFFEE700BFFEE700BFB1
:100DE000FEE7704770477047704700000CB5002061
:100DF000019000906C48006840F480306A490860B7
:100E000000BF6948006800F4003000900198401C61
:100E10000190009818B90198B0F5A06FF1D162481F
:100E2000006800F4003010B10120009001E00020C3
:100E300000900098012843D15C48006840F0100001
:100E40005A4908600846006820F003000860084618
:100E5000006840F00200086053484068524948600A
:100E60000846406848600846406840F48060486032
:100E70000846406820F47C1048600846406840F40A
:100E8000E81048600846006840F08070086000BFC5
:100E90004548006800F000700028F9D042484068DA
:100EA00020F00300404948600846406840F00200D6
:100EB000486000BF3C48406800F00C000828F9D1A9
:100EC0000CBD10B5FFF792FF10BD10B53648006895
:100ED00040F0010034490860084640683449084041
:100EE0003149486008460068324908402E49086088
:100EF0000846006820F4802008600846406820F416
:100F0000FE0048604FF41F008860FFF7DAFF4FF0E3
:100F100000602949086010BD10B5002100200022A2
:100F2000214B5B6803F00C0121B1042906D008298C
:100F300028D107E0214B224C236027E01F4B204C97
:100F4000236023E0184B5B6803F47010164B5B685A
:100F500003F48032022303EB904022B9194B434340
:100F6000174C23600DE0104B5B6803F4003323B192
:100F7000144B4343124C236003E0104B4343104C8B
:100F8000236003E00D4B0E4C236000BF00BF064BF7
:100F90005B68C3F303130C4CE15C094B1B68CB404B
:100FA000074C236010BD00000010024000200240EA
:100FB0000000FFF8FFFFF6FE08ED00E000127A00E7
:100FC0005C00002000093D006000002008B54FF4DF
:100FD0000060ADF8000048208DF8030003208DF874
:100FE00002006946824800F025FF08BD08B54FF4AD
:100FF0000060ADF8000010208DF8030003208DF88C
:10100000020069467A4800F015FF08BD08B50121C5
:10101000082001F0CBF94FF44060ADF8000010203B
:101020008DF8030003208DF802006946704800F037
:1010300001FF4FF48050ADF8000004208DF803004C
:1010400069466B4800F0F6FE01206A4908606A496B
:10105000C1F8AC0108BD10B5FFF7C8FF0120654914
:10106000091D08606449C1F8A801042000F06DFD65
:1010700000206049091D0860042000F066FD002082
:101080005D49C1F8A80110BD10B5FFF7AFFF002002
:10109000584908605849C1F8AC01042000F055FDDA
:1010A0000120544908605449C1F8AC01042000F003
:1010B0004CFD10BD10B50024FFF788FF01204D49FD
:1010C000091D086000F041FD01204B49C1F8A8014D
:1010D00000F03BFD07E0601CC4B2FA2C03DDFFF713
:1010E000D3FF012010BD43487C3800680028F2D1AE
:1010F0004049086000BFF5E710B500203D49086091
:10110000FFF774FF00203C49C1F8AC01022000F059
:101110001CFD012037490860022000F016FD002068
:101120003549C1F8A80110BD10B50020314908604B
:10113000FFF75CFF01203049C1F8AC01022000F04C
:1011400004FD01202B490860022000F0FEFC002075
:101150002949C1F8A80110BD70B50446FFF746FF44
:10116000002024490860002517E0E0092149091DF5
:1011700008606006040E022000F0E7FC01201E4912
:10118000C1F8A801022000F0E0FC00201949086025
:10119000022000F0DAFC681CC5B2082DE5DB70BD4A
:1011A00070B505460024FFF711FF002616E0002069
:1011B00010490860022000F0C8FC01200E49C1F867
:1011C000A8016006040E0B487C38006808B1601C5A
:1011D000C4B2012000F0B9FC701CC6B2082EE6DBD8
:1011E00015B1FFF7A1FF01E0FFF786FF204670BDB4
:1011F000000C0140A88121420080214208B5012154
:10120000082001F0D3F84FF48050ADF8000004201E
:101210008DF8030003208DF802006946944800F021
:1012200009FE08BD2DE9F04105460C46FFF713FF06
:10123000AE20FFF791FFFFF73DFF06462846FFF778
:101240008BFFFFF737FF07462046FFF785FFFFF7C5
:1012500031FF8046FFF718FF1EB917B9B8F1000F2C
:1012600003D04FF0FF30BDE8F0810020FBE72DE90F
:10127000F04105460C46FFF7EEFEAE20FFF76CFF8F
:10128000FFF718FF06462846FFF766FFFFF712FF35
:101290000746FFF7E0FEAF20FFF75EFFFFF70AFF0C
:1012A00080460020FFF77CFF2070FFF7EDFE1EB99F
:1012B00017B9B8F1000F03D04FF0FF30BDE8F0814F
:1012C0000020FBE710B5FFF799FFC0210220FFF7D0
:1012D000A9FF10B14FF0FF3010BD00210320FFF730
:1012E000A1FF10B14FF0FF30F6E700210420FFF717
:1012F00099FF10B14FF0FF30EEE700210520FFF716
:1013000091FF10B14FF0FF30E6E700210620FFF714
:1013100089FF10B14FF0FF30DEE70F210820FFF703
:1013200081FF10B14FF0FF30D6E703210920FFF70E
:1013300079FF10B14FF0FF30CEE727210A20FFF7E9
:1013400071FF10B14FF0FF30C6E724210C20FFF7EA
:1013500069FF10B14FF0FF30BEE724210D20FFF7E9
:1013600061FF10B14FF0FF30B6E77F211020FFF78B
:1013700059FF10B14FF0FF30AEE70020ACE72DE988
:10138000FE4304460D4600202060286002A9FFF7B6
:101390006EFF02A90120FFF76AFF07208DF8000009
:1013A000FFF759FEAE20FFF7D7FEFFF783FE074693
:1013B0009DF80000FFF7D0FEFFF77CFE8046FFF7A8
:1013C0004AFEAF20FFF7C8FEFFF774FE81460020FB
:1013D000FFF7E6FE06463604206830442060002011
:1013E000FFF7DEFE0646360220683044206000200B
:1013F000FFF7D6FE06462068304420600020FFF745
:10140000CFFE064636042868304428600020FFF7E7
:10141000C7FE064636022868304428600020FFF7E1
:10142000BFFE0646FFF730FE28683044286020687B
:10143000C0F3110020602868C0F3110028602FB9A4
:10144000B8F1000F02D1B9F1000F03D04FF0FF3017
:10145000BDE8FE830020FBE710B540210920FFF71F
:10146000E1FE10B14FF0FF3010BD0020FCE700009E
:10147000000C014030B50C46012213E050F8223038
:10148000114605E04D1E50F8255040F82150491EE8
:10149000002904DD4D1E50F825509D42F2DC40F835
:1014A0002130521CA242E9DB30BDF0B5034615469F
:1014B000012217E051F82240104605E0461E51F87F
:1014C000266041F82060401E002808DD53F8247093
:1014D000461E51F8266053F82660B742EEDC41F80C
:1014E0002040521CAA42E5DBF0BD2DE9F04F054635
:1014F0000C4692469846294650462268FFF7D5FF8B
:101500004FF0FF3621E0D4F800B0701C2060771C4B
:1015100018E055F82710701C10B94FF0FF3001E0AB
:1015200055F82600A1EB0009C14503DCC8F1000015
:10153000814506DA55F827102268501C206045F8CE
:1015400022107F1C5F45E4DB761C2068B042DADCA9
:1015500028462168FFF78EFFBDE8F08FF0B50546FD
:101560001C46059E012000270F6030E052F82070D5
:10157000B7422BDD52F820C0471E52F82770BC45F9
:1015800024DD012300E05B1CC718A74207DA52F8EC
:10159000207000EB030C52F82CC06745F3D052F8D2
:1015A000207000EB030C52F82CC067450CDD0F686F
:1015B0000F2F09DAD1F800C00CF101070F6045F8D0
:1015C0002C005F1C384402E0184400E0401C671EF9
:1015D0008742CBDCF0BD2DE9F84705460C461646A0
:1015E0001F46DDE90A9ADDF824803B463246214653
:1015F0002846CDF80080FFF7B1FF4B463246214622
:101600002846FFF772FF2068504501DA206800E0A5
:1016100050462060BDE8F8872DE9FF4FC6B08846E8
:10162000994600204590002406E0469850F8241082
:10163000459808444590641C4445F6DB4598B0FB4A
:10164000F8F04590002408E0469850F8241045989A
:10165000081AFE4941F82400641C4445F4DB0024C8
:1016600017E0FA4850F824100246601C52F8200097
:101670000144A01C52F820000144E01C52F8200054
:101680000F183846F91707EB9171891042F82410AA
:10169000641CB4F5F87FE4DB00240AE0EB49601C2D
:1016A00051F8200051F82410401AE94941F824006B
:1016B000641CB4F5F77FF1DD00240EE0E44951F835
:1016C00024200B46611C53F82110501800EBD071F8
:1016D00049101A4642F82410641CB4F5F77FEDDB7C
:1016E00000251BE0002043902C460BE0D84850F822
:1016F0002410601BD74A32F81020439801FB1200D7
:101700004390641C681D8442F0DB40F27A414398A8
:1017100090FBF1F0CE4941F825006D1CB5F5F47F42
:10172000E0DD00204190002410E0C94850F824007A
:10173000002803DDC64850F8240003E0C44850F8F0
:1017400024004042419908444190641CB4F5F77F5D
:10175000EBDD40F2EF11419890FBF1F04190052153
:101760000822419840F2EF13CDE901210090B84AD8
:1017700040A912A8FFF72FFF0020119040980228DF
:1017800021DB01240BE012A850F82410601E12AADD
:1017900052F82000091A119808441190641C4098CE
:1017A0008442F0DB4098401E119991FBF0F01190BB
:1017B00041F27071119891FBF0F154980160012190
:1017C0005598017005E0A44954980160002155988E
:1017D0000170002407E012A850F82400801C30A9F2
:1017E00041F82400641C40988442F4DB00240CE09F
:1017F000469850F82400954941F82400489850F83C
:101800002400964941F82400641C4445F0DB002084
:10181000429000242DE00120449030A850F824A0EC
:101820004FF080703F900AF10500B0F5F77F1FDCA4
:101830000A3800281CDD054611E0844850F82510C0
:101840003F9881420ADA449808B1002044907F48CA
:1018500050F825003F9021A840F824506D1C0AF153
:1018600005008542E9DB449810B94298401C42903B
:10187000641C40988442CEDB4298022808DA7648FD
:10188000C9F800000021539801704AB0BDE8F08FFC
:1018900000242EE06D4951F824200B46611C53F8BA
:1018A00021100A44A11C53F821100A44E11C53F8EA
:1018B00021105018C11700EB917189101A4642F897
:1018C0002410664951F824200B46611C53F821105E
:1018D0000A44A11C53F821100A44E11C53F82110BA
:1018E0005018C11700EB917189101A4642F8241064
:1018F000641CB4F5F87FCDDB0020049000260024A2
:1019000004E0002005A941F82400641C052CF8DB44
:1019100000240DE021A850F82400B0F5FA7F06DD80
:101920004D48C9F80000002153980170ADE7641CD0
:1019300042988442EEDB0024AEE04FF07F400D90F1
:101940000C9021A9601C51F8200051F82410401A75
:101950000A2879DD21A850F8245016E03B4850F8B9
:1019600025100C98814204DD384850F825000C9071
:101970000A953A4850F825100D98814204DD374801
:1019800050F825000D900B956D1C21A9601C51F895
:101990002000A842E2DC601C51F820002F4951F8D9
:1019A000200021A951F824102C4A52F82110401A85
:1019B00021A951F824200B99891A4843109021A994
:1019C000601C51F8200051F82410411A109890FB27
:1019D000F1F021A951F82410204A52F821100844AE
:1019E000109011460B9851F820101098081A10907A
:1019F00021A9601C51F82000144951F8200021A9A8
:101A000051F82410114A52F82110401A21A951F816
:101A100024200A99891A48430F9021A9601C51F883
:101A2000200051F82410411A0F9890FBF1F021A9E1
:101A300051F82410054A52F8211008440F9011461D
:101A40000B9851F820100BE025E00000041800204E
:101A5000441000202641000819FCFFFFD41F00207D
:101A60000F98081A0F900C9910984843C0110390D2
:101A70000D990F984843C711002F0CDD052E0ADA87
:101A8000039840B164210398484390FBF7F005A9FF
:101A900041F82600761C641C4298401EA0423FF785
:101AA0004CAF314605A8FFF7E5FC304606EBD07198
:101AB0004FEA610BBBF1010F0CDDABF1010105AA8F
:101AC00052F8211052F82B20881800EBD0714910E1
:101AD000049103E005A850F82B0004900498022814
:101AE0000DDD0498B8280ADA09490498085C0E90BC
:101AF0000E98C9F8000001215398017005E00548CF
:101B0000C9F8000000215398017000BFBDE6000035
:101B10006441000819FCFFFF10B56FF0040000F0ED
:101B2000FCFE2E4800682E49B0FBF1F02D490870EC
:101B30000846007800EB4001C1EBC0104FF6FF7182
:101B400001EAC0002849088010BD0146254A1278E4
:101B50004A434FF0E0235A6100229A611A46126903
:101B600042F001021A6100BF4FF0E022106900F05C
:101B700001021AB100F48032002AF5D04FF0E022C1
:101B8000126922F001024FF0E0231A6100229A61EB
:101B900070470146144A12884A434FF0E0235A61C5
:101BA00000229A611A46126942F001021A6100BFCE
:101BB0004FF0E022106900F001021AB100F4803207
:101BC000002AF5D04FF0E022126922F001024FF016
:101BD000E0231A6100229A61704700005C00002037
:101BE00000127A007000002072000020014600BF41
:101BF000704700BF4A4A128802F04002002AF9D01A
:101C0000C2B2474B1B1D1A80704710B586B0044600
:101C10000121042000F0CAFB0121480400F0D3FB9D
:101C20000420ADF8140003208DF8160018208DF85C
:101C3000170005A93B4800F0FDF80820ADF8140096
:101C400004208DF8170005A9364800F0F3F8262087
:101C50008DF8000003208DF801008DF802000120AE
:101C60008DF80300684600F00EFE01940020ADF8E8
:101C70000800ADF80A00ADF80C00ADF810000C201B
:101C8000ADF80E0001A9264800F037FC012240F211
:101C90002551234800F0C9FC0121214800F0B9FC7E
:101CA00006B010BD10B540F225511F4800F0A2FD4E
:101CB00010B31D4800F01EFDC4B21C48008800F49B
:101CC0000040C8B91948008800F4804060B10A2C6F
:101CD00003D000201549088020E01448008840F413
:101CE00000401249088019E00D2C06D10F480088E9
:101CF00040F480400D49088010E00C480088C0F393
:101D00000D000B490C5409480088401C0749088005
:101D100008460088C72801DD0020088010BD0000AB
:101D200000440040000801400038014078000020D5
:101D3000A42700200948804709480047FEE7FEE73E
:101D4000FEE7FEE7FEE7FEE7FEE7FEE7FEE7FEE76B
:101D500004480549054A064B70470000CB0E0008B1
:101D6000ED000008D0280020D02E0020D02A00202E
:101D7000D02A002010B50446CC48844208D1012165
:101D8000042000F02DFB0021042000F029FB46E098
:101D9000C748844208D10121082000F021FB00211E
:101DA000082000F01DFB3AE0C248844208D101211E
:101DB000102000F015FB0021102000F011FB2EE098
:101DC000BD48844208D10121202000F009FB0021F8
:101DD000202000F005FB22E0B848844208D1012110
:101DE000402000F0FDFA0021402000F0F9FA16E052
:101DF000B348844208D10121802000F0F1FA00218B
:101E0000802000F0EDFA0AE0AE48844207D10121BB
:101E1000801500F0E5FA0021A01500F0E1FA10BDF0
:101E200010B50121084600F0DBFA0021012000F086
:101E3000D7FA10BD2DE9F04102460025002600200A
:101E400000230024002791F803C00CF00F0591F83F
:101E500003C00CF0100CBCF1000F03D091F802C0CD
:101E60004CEA050591F800C0BCF1000F31D01468B0
:101E700000202BE04FF0010C0CFA00F3B1F800C089
:101E80000CEA03069E4220D183004FF00F0C0CFA9F
:101E900003F7BC4305FA03FC4CEA040491F803C0C1
:101EA000BCF1280F06D14FF0010C0CFA00FCC2F86F
:101EB00014C00AE091F803C0BCF1480F05D14FF0FF
:101EC000010C0CFA00FCC2F810C0401C0828D1D349
:101ED0001460B1F800C0BCF1FF0F34DD546800207D
:101EE0002EE000F1080C4FF0010808FA0CF3B1F8ED
:101EF00000C00CEA03069E4221D183004FF00F0C74
:101F00000CFA03F7BC4305FA03FC4CEA040491F80D
:101F100003C0BCF1280F05D100F1080C08FA0CF839
:101F2000C2F8148091F803C0BCF1480F07D100F14A
:101F3000080C4FF0010808FA0CF8C2F81080401C99
:101F40000828CED35460BDE8F0814FF6FF710180C0
:101F5000022181700421C1707047024600209368FD
:101F60000B400BB1012000E000207047014688685B
:101F700080B2704702460020D3680B400BB10120AD
:101F800000E0002070470146C86880B270470161D8
:101F90007047416170470AB1016100E041617047DB
:101FA000C16070474FF480320A438261816182616F
:101FB00082698269704702460020434B18684FF6D9
:101FC0008073184040EA021008433F4B1860704786
:101FD0003E49C8617047F0B50A460023002400213D
:101FE000002500F00046B6F1004F02D1364EF169EF
:101FF00001E0354E7168C0F3034583B200F440162A
:10200000B6F5401F08D121F070612F4E766826F09A
:1020100070662D4F7E6012E000F48016B6F5801FCA
:1020200006D1032606FA05F4A14341F0706106E0EB
:10203000460D360103FA06F6B14341F0706122B154
:10204000460D360103FA06F6314300F00046B6F1BC
:10205000004F02D11C4EF16101E01B4E7160F0BDDA
:1020600030B500228B071C0F0F2303FA04F2164B26
:1020700008338C1053F824309343134C08348D10DC
:1020800044F8253023468C1053F824308C07240F55
:1020900000FA04F423430C4C08348D1044F8253026
:1020A00030BD0A49DC31086070470000000801407B
:1020B000000C0140001001400014014000180140D4
:1020C000001C0140002001400000014000002042AF
:1020D000DF48006840F00100DD49086008464068BC
:1020E000DC490840DA49486008460068DA49084097
:1020F000D74908600846006820F480200860084638
:10210000406820F4FE0048604FF41F00886070476C
:10211000CF49096821F48031CD4A11601146096820
:1021200021F480211160B0F5803F03D0B0F5802FFD
:102130000ED106E0C649096841F48031C44A1160F5
:1021400007E0C349096841F4A021C14A116000E0D9
:1021500000BF00BF704710B50146002200230020D9
:102160004A11012A02D1BA4C236806E0022A02D1A0
:10217000B74C236A01E0B64C636A01F01F020124E8
:1021800094401C400CB1012000E0002010BD38B587
:10219000002000900024002500BF3120FFF7DBFF66
:1021A00005460098401C00900098B0F5A06F01D043
:1021B000002DF2D03120FFF7CEFF08B1012400E05E
:1021C0000024204638BD01460020A14A106820F0B6
:1021D000F80040EAC10010607047A04908607047ED
:1021E000024600209A4B586820F47C1042EA010312
:1021F0001843974B586070479849086670470146E6
:102200000020934A506820F0030008435060704754
:102210008F48406800F00C007047014600208C4A4F
:10222000506820F0F00008435060704701460020DD
:10223000874A506820F4E0600843506070470146C8
:102240000020834A506820F4605040EAC10050608A
:10225000704729B17E4A527A02437D4B5A7204E09C
:102260007B4A527A82437A4B5A7270477B49D83103
:102270000860704701460020754A506820F44040CD
:102280000843506070470021714A20321170704A33
:1022900082F82010012802D004280AD104E001218C
:1022A0006B4A2032117005E00521694A2032117015
:1022B00000E000BF00BF704769490860704764498B
:1022C000096A0143624A11627047654944390860EE
:1022D000704730B500210022002400235C4D6D685A
:1022E00005F00C0121B1042905D0082923D105E00E
:1022F0005C4D056022E05B4D05601FE0544D6D684C
:1023000005F47012524D6D6805F48034022505EB1A
:1023100092421CB9544D554305600BE04C4D6D681D
:1023200005F400351DB1504D5543056002E04D4D9B
:102330005543056002E04B4D056000BF00BF444DB2
:102340006D6805F0F0010909484D6B5C0568DD40DA
:1023500045603F4D6D6805F4E061090A434D6B5CD3
:102360004568DD4085603A4D6D6805F46051C90AE5
:102370003E4D6B5C4568DD40C560354D6D6805F4CC
:102380004041890B3A4D6B5CC568B5FBF3F50561BF
:1023900030BD29B12E4A526902432D4B5A6104E0E7
:1023A0002B4A526982432A4B5A61704729B1284A05
:1023B00092690243264B9A6104E0254A926982435E
:1023C000234B9A61704729B1214AD2690243204BBD
:1023D000DA6104E01E4AD26982431D4BDA6170471C
:1023E00029B11B4AD2680243194BDA6004E0184A4B
:1023F000D2688243164BDA60704729B1144A1269D9
:102400000243134B1A6104E0114A12698243104BD4
:102410001A61704712494039086070470F49C86413
:1024200070470B49C87170470948406A40F0807096
:1024300007494862704701460020054A92680A40F1
:102440000AB1012000E000207047014988727047FE
:10245000001002400000FFF8FFFFF6FE00004242BD
:102460008004424200127A0000093D007A000020F8
:102470008A00002010B50446FB48844209D101219E
:102480008803FFF7ADFF00214FF48040FFF7A8FF5E
:1024900032E0F648844209D101214804FFF7ADFF3C
:1024A00000214FF40030FFF7A8FF25E0F0488442F8
:1024B00009D101218804FFF7A0FF00214FF48020FB
:1024C000FFF79BFF18E0EB48844209D10121C804C3
:1024D000FFF793FF00214FF40020FFF78EFF0BE082
:1024E000E548844208D101210805FFF786FF002155
:1024F0004FF48010FFF781FF10BD2DE9F04786B043
:1025000005460E460024A24600BFA1460027B0891A
:1025100000B100BF2F462C8A4CF6FF700440F088B3
:1025200004432C82AC894EF6F3100440B088318904
:102530000843718908430443AC81AC8A4FF6FF40DD
:102540000440B0890443AC8201A8FFF7C2FEC6482C
:10255000874202D1DDF810A001E0DDF80CA0A889C7
:1025600000F4004040B10AEBCA0000EB0A103168E9
:102570004900B0FBF1F807E00AEBCA0000EB0A10D3
:1025800031688900B0FBF1F86420B8FBF0F0040179
:102590002009642101FB1089A88900F4004040B1A2
:1025A000322000EBC900B0FBF1F000F0070004435B
:1025B00008E0322000EB09106421B0FBF1F000F0DC
:1025C0000F0004432C8106B0BDE8F0874FF416518C
:1025D000016000218180C18001810C2141810021A5
:1025E0008181704710B502460020108A4FF2FF0328
:1025F00018400B884C8823438C882343CC88234382
:102600001843108210BD0021018041808180C1806B
:10261000704721B1828942F40052828104E08289AC
:102620004DF6FF731A4082817047F0B503460024CF
:1026300000260025002040F66A17B94200D100BFED
:102640001846C1F3421401F01F06012707FA06F5E8
:10265000012C01D10C3004E0022C01D1103000E03B
:1026600014301AB107682F43076002E00768AF43D0
:102670000760F0BD1AB1838A0B43838202E0838A2C
:102680008B4383827047028A4FF6F0731A400282AE
:10269000028A0A430282704782894FF2FF731A400E
:1026A000828182890A438281704721B1828942F006
:1026B0000202828104E082894FF6FD731A40828112
:1026C0007047028A4FF6DF731A400282028A0A4379
:1026D0000282704721B1028A42F48042028204E001
:1026E000028A4BF6FF731A4002827047C1F3080258
:1026F0008280704701468888C0F30800704781894E
:1027000041F0010181817047028BD2B20283028BBA
:1027100042EA012202837047028B02F47F42028365
:10272000028B0A430283704721B1828A42F0200261
:10273000828204E0828A4FF6DF731A4082827047F9
:1027400021B1828A42F01002828204E0828A4FF62E
:10275000EF731A408282704721B1828A42F00802E8
:10276000828204E0828A4FF6F7731A4082827047B1
:1027700021B1828942F40042828103E08289C2F35E
:102780000E028281704721B1828A42F40062828205
:1027900004E0828A4FF2FF731A4082827047828A75
:1027A0004FF6FB731A408282828A0A438282704704
:1027B00021B1828A42F00202828204E0828A4FF6CC
:1027C000FD731A408282704702460020B1F5007FF7
:1027D00000D100BF13880B400BB1012000E00020A6
:1027E000704701F40072B2F5007F00D100BFCA4308
:1027F0000280704770B502460024002300250020A7
:1028000040F66A16B14200D100BFC1F3421501F093
:102810001F03012606FA03F3012D02D196893340E6
:1028200006E0022D02D1168A334001E0968A334039
:102830000C12012606FA04F41688344013B10CB1C8
:10284000012000E0002070BD10B50022002340F6FA
:102850006A14A14200D100BF0A1201249440A3B21D
:10286000DC43048010BD00000038014000440040FB
:1028700000480040004C00400050004031490143F6
:10288000314A1160704770B5002100230F22C478CF
:1028900004B32D4C246804F4E064C4F5E064210A18
:1028A000C1F10403CA40447804FA03F18478144067
:1028B00021430901254C0678A155047804F01F0531
:1028C0000124AC4005786D11AD0005F1E025C5F897
:1028D000004109E0047804F01F050124AC401C4DC0
:1028E0000678761145F8264070BD1A4A0A40024320
:1028F000154B1B1F1A60704739B1134A121D12681D
:102900000243114B1B1D1A6006E00F4A121D12688C
:1029100082430D4B1B1D1A607047042808D14FF0ED
:10292000E021096941F004014FF0E022116107E064
:102930004FF0E021096921F004014FF0E02211611C
:10294000704700000000FA050CED00E000E400E034
:1029500080E100E080FFFF1F10B50121C802FFF7F2
:102960004CFD00214FF40060FFF747FD10BD002132
:10297000194A126822F4C0710143174A1160704766
:1029800008B5002100911449096821F07F010091E8
:1029900000F07F01009A114300910F4A00991160E5
:1029A00008BD01200D490860704700F07F010A4A08
:1029B000121F1160704740F08001074A121F11601A
:1029C00070470548001D0068C0B2704700200249EA
:1029D000091D086070470000042C0040A4800542D7
:1029E00001460020FE4A106800F0380008431060DD
:1029F0007047FB49096821F00801F94A1160114646
:102A00000968014311607047F549096821F0100118
:102A1000F34A116011460968014311607047F1489B
:102A2000EF494860F04848607047EE48EC4948601C
:102A3000ED4848607047EA48006940F08000E84986
:102A400008617047E648006940F08000E449086189
:102A500070470420E249C96801F0010109B1012071
:102A60000EE0DF49C96801F0040109B1022007E066
:102A7000DB49C96801F0100109B1032000E004201E
:102A8000704700B502460423FFF7E3FF034603E067
:102A9000FFF7DFFF0346521E012B01D1002AF7D1B9
:102AA00002B90523184600BD30B5044604254FF48D
:102AB0003020FFF7E6FF0546042D17D1C84800690E
:102AC00040F00200C649086108464461006940F0D0
:102AD000400008614FF43020FFF7D3FF0546C0489F
:102AE000006941F6FD710840BD490861284630BDC6
:102AF00010B504244FF43020FFF7C3FF0446042C24
:102B000016D1B748006940F00400B549086108468D
:102B1000006940F0400008614FF43020FFF7B1FF3A
:102B20000446AF48006941F6FB710840AC490861B2
:102B3000204610BD00B502460423FFF78AFF034676
:102B400003E0FFF786FF0346521E012B01D1002A46
:102B5000F7D102B90523184600BD10B504244FF47F
:102B60003020FFF7E7FF0446042C16D19C4800698B
:102B700040F004009A4908610846006940F04000AE
:102B800008614FF43020FFF7D5FF044694480069F0
:102B900041F6FB71084092490861204610BD0020B3
:102BA0008F49C96901F0020109B1012000E000204C
:102BB000704730B5A5250424FFF7F1FF00B10025CB
:102BC0004FF43020FFF75DFF0446042C3AD18548CE
:102BD00083498860844888600846006940F0200086
:102BE00008610846006940F0400008614FF4302059
:102BF000FFF747FF0446042C1BD17948006941F6D2
:102C0000DF710840764908610846006940F010000D
:102C1000086176480580E002FFF733FF0446052C83
:102C200010D06F48006941F6EF7108406C490861A7
:102C300008E0052C06D06A48006941F6EF710840AB
:102C400067490861204630BD78B506460C46042524
:102C500000200090E802FFF714FF0546042D24D160
:102C60005F48006940F001005D4908613480E80276
:102C7000FFF707FF0546042D10D1B01C0090200C73
:102C800000990880E802FFF7FCFE054654480069F9
:102C900041F6FE7108405249086106E0504800695B
:102CA00041F6FE7108404E490861284678BD70B56E
:102CB00004460D460426F002FFF7E3FE0646042E06
:102CC00011D14748006940F001004549086125805D
:102CD000F002FFF7D6FE06464148006941F6FE7154
:102CE00008403F490861304670BD70B505460E4644
:102CF0000424E002FFF7C5FE0446042C17D139482E
:102D000037498860384888600846006940F01000FC
:102D100008612E80E002FFF7B4FE0446052C06D0C1
:102D20002F48006941F6EF7108402D49086120469F
:102D300070BD2DE9F04304464FF6FF763746B046A6
:102D4000B1460425E443E6B2C4F30727C4F30748B9
:102D50004FEA1469E802FFF794FE0546042D49D1B5
:102D600020481F498860204888600846006940F074
:102D700010000861FF2E06D01C4808300680E802CB
:102D8000FFF77FFE0546042D08D1FF2F06D0174818
:102D90000A300780E802FFF774FE0546042D0AD1C9
:102DA000B8F1FF0F07D011480C30A0F80080E802FE
:102DB000FFF767FE0546042D0AD1B9F1FF0F07D0D2
:102DC0000A480E30A0F80090E802FFF75AFE0546C8
:102DD000052D0FD00248006941F6EF71084007E069
:102DE0000020024023016745AB89EFCD00F8FF1FAB
:102DF000664908612846BDE8F08330B505460424DD
:102E00004FF43020FFF73DFE0446042C41D16048CA
:102E10005E4988605F4888600846006940F020008D
:102E200008610846006940F0400008614FF4302016
:102E3000FFF727FE0446042C22D15448006941F6CE
:102E4000DF710840514908610846006940F01000F0
:102E500008611DB100205049088002E0A5204E49BC
:102E600008804FF43020FFF70CFE0446052C10D0EC
:102E70004648006941F6EF7108404449086108E09E
:102E8000052C06D04148006941F6DF7108403F49F2
:102E90000861204630BDF0B505460E4617460424AD
:102EA0003B483A4988603B488860E002FFF7E9FD0B
:102EB0000446042C19D13548006940F0100033490C
:102EC000086147F0F800304328433349891C0880E3
:102ED000E002FFF7D6FD0446052C06D02B4800691A
:102EE00041F6EF710840294908612046F0BD2748A6
:102EF000C069800870472548006A70470020234950
:102F0000096801F0200109B1012000E000207047AC
:102F100029B11E4A126902431C4B1A6104E01B4A84
:102F200012698243194B1A6170470146002001293A
:102F300008D1164AD26902F001020AB1012008E064
:102F4000002006E0114AD2680A400AB1012000E0E0
:102F5000002070470D49C860704704200B49C968BC
:102F600001F0010109B101200EE00849C96801F032
:102F7000040109B1022007E00449C96801F0100109
:102F800009B1032000E00420704700000020024047
:102F900023016745AB89EFCD00F8FF1F10B504464C
:102FA000FA48844208D101214015FFF719FA00219F
:102FB0006015FFF715FA17E0F548844208D10121A2
:102FC0000015FFF70DFA00212015FFF709FA0BE0B5
:102FD000F048844208D10121C803FFF701FA00211B
:102FE0004FF40040FFF7FCF910BD30B50246002059
:102FF00000235068E84C20400D790C6844EA052411
:10300000204350609068E54C2040D1E902542C43A5
:103010004D7944EA450420439060D06A20F4700062
:103020000C7C641EE4B2234340EA0350D06230BDFE
:1030300000210160017141718160C1600121017451
:10304000704721B1826842F00102826003E0826829
:1030500022F001028260704721B1826842F48072DE
:10306000826003E0826822F480728260704710B54B
:103070000023CBB21AB144681C43446002E04468A8
:103080009C43446010BD816841F008018160704735
:10309000014600208A6802F008020AB1012000E01F
:1030A00000207047816841F004018160704701464B
:1030B00000208A6802F004020AB1012000E000202A
:1030C000704721B1826842F4A002826003E0826806
:1030D00022F4A00282607047014600208A6802F450
:1030E00080020AB1012000E00020704710B50A46B6
:1030F00000210023416821F46041531E41EA43311D
:10310000416010BD21B1426842F40062426003E0B8
:10311000426822F4006242607047F0B504460D46F2
:1031200000200021092D11DDE068A5F10A0606EB5B
:103130004607072606FA07F18843A5F10A0606EBBB
:10314000460603FA06F10843E0600CE0206905EB4F
:103150004507072606FA07F1884305EB450603FAFB
:1031600006F108432061072A0FDA606B561E06EB52
:1031700086071F2606FA07F18843561E06EB8606C9
:1031800005FA06F10843606322E00D2A0FDA206B8E
:10319000D61F06EB86071F2606FA07F18843D61FBF
:1031A00006EB860605FA06F10843206310E0E06AA4
:1031B000A2F10D0606EB86071F2606FA07F18843E3
:1031C000A2F10D0606EB860605FA06F10843E06259
:1031D000F0BD21B1826842F48012826003E082680F
:1031E00022F48012826070470146C86C80B270473A
:1031F00066484C300068704721B1426842F48062F2
:10320000426003E0426822F480624260704721B16C
:10321000426842F48052426003E0426822F48052E5
:10322000426070470A460021816821F4E041114361
:103230008160704721B1826842F40042826003E0FD
:10324000826822F400428260704721B1826842F4B1
:103250000212826003E0826822F4021282607047E8
:10326000014600208A6802F400120AB1012000E041
:1032700000207047F0B504461546002000220026C5
:10328000092911DDE068A1F10A0707EB470C0727C0
:1032900007FA0CF29043A1F10A0707EB470703FA7C
:1032A00007F21043E0600CE0206901EB410C0727B6
:1032B00007FA0CF2904301EB410703FA07F21043BF
:1032C0002061A06BC0F30156EF1C06F1010CA7EBC7
:1032D0000C0707EB870C1F2707FA0CF29043EF1C33
:1032E00006F1010CA7EB0C0707EB870701FA07F2C1
:1032F0001043A063F0BD10B50A4600210023816B86
:1033000021F44011531E41EA0351816310BD08B5F9
:10331000002300930090009B0B440093009B1A60D5
:1033200008BD08B5024600200090009201F1280077
:10333000009B184400900098006880B208BD0A46BF
:1033400000214168164B19401143416070474162AA
:10335000826270470A460021416821F01F01114333
:103360004160704740B109490831096841F40001E2
:10337000064A0832116007E004490831096821F45F
:103380000001024A08321160704700000024014029
:1033900000280140003C0140FFFEF0FFFDF7F1FF77
:1033A000FFFD3FFF0246002013680B400BB10120D8
:1033B00000E000207047CA430260704770B50246C3
:1033C0000020002300240B125568CEB205EA060443
:1033D00015681D4015B10CB1012000E0002070BD42
:1033E00000220A12D3430360704770470FB40449A8
:1033F00010B503AA029800F009F810BC5DF814FBA0
:10340000740000207047704770477047074B70B5D5
:103410000D467B4400F011F80446284600F020F8E1
:1034200010B14FF0FF3070BD204670BDDDE7FFFFEB
:1034300001694A1C02610878704700B58FB0CDE978
:1034400001310021059105497944CDE90310114668
:10345000684600F02EF80FB000BD0000E5FFFFFF4A
:10346000007B00F080007047754600F03FF8AE46E4
:1034700005006946534620F00700854618B020B580
:10348000FEF766FCBDE820404FF000064FF0000755
:103490004FF000084FF0000B21F00701AC46ACE8FC
:1034A000C009ACE8C009ACE8C009ACE8C0098D4669
:1034B00070472DE9F04106460024D6E90170F56811
:1034C0008046304603E04146B847641C3046A84772
:1034D0000028F8D12046BDE8F08110B50446AFF3CE
:1034E00000802046BDE81040FCF747BE004870470A
:1034F0006C28002021F00042A2F16052B2F5801F3A
:1035000001F0004328BFD2F17F6C0BD95FEA001CA9
:1035100043EAC20242EB507018BF704728BF20F048
:1035200001007047B2F5801FBCBF184670474FEAD4
:10353000410C1CF5001F02D2084600F048BD70B5D2
:1035400000F052FA00000089FFF7F6BF4FF000408C
:10355000A0F58000704700002DE9C04130B4DFF8CD
:10356000A0C23CEA111418BF3CEA131400F0EC802E
:1035700081EA03051CEA111444EAD57418BF1CEA59
:10358000131500F0C780A4EB05044FF0004545EA91
:10359000C12145EAC32341EA505143EA525304F1A1
:1035A0007F74994204F500344FEAC0204FEAC222EA
:1035B00008BF904200F09C804FEA13650FF240165E
:1035C000765D4FEA134506FB05F7C7F1807706FBEA
:1035D00007F74FEAD737A7FB03687642C8F580386C
:1035E000A7FB06CE38BFA8F1010807FB08E64FF09D
:1035F000000EA6FB028CE6FB03CEDCF1000CCEF144
:10360000004E38BFAEF1010EA6FB0C584FF000077C
:103610004FF00005E6FB0E87A1FB08C6A0FB07CE16
:1036200016EB0E0645F10005E1FB076515F1E04ECE
:103630007EBFA4F580345FEA46066D4116F180072F
:1036400045F100054FEA17274FEA066647EA056786
:10365000A6F1DE46B6F1805F4FEA15251FD9384640
:1036600024F0010C05EBC471BCF1FE6F01EB0C11F1
:1036700002D8F0BCBDE8008124425CBF01F5801E89
:103680009EEAC47F02D4F0BCBDE80081244238D455
:10369000F0BCA1F1C041BDE8004100F0F3B94FEA30
:1036A000D22242EA43524FEAD323A7FB02864FEAD3
:1036B000D02040EA415007FB03661EEA0E0F4FEA96
:1036C000D12105FB026658BFA6EB0056B6EB0056AB
:1036D0004FEA520E4EEAC37E18EB0E0E56EB530E17
:1036E000BDD518EB02085E417F1C55F10005B6E719
:1036F0004FF480154FF000074FF000064FF0000820
:10370000ADE7F0BC4FF0000001F1C04101F0004115
:10371000BDE8008111EA0C1F0CEA131500D00CE083
:1037200013EA0C1F00F025804FF00000F0BC81EA86
:10373000030101F00041BDE80081F0BCBDE800419B
:1037400081EA030100F09EB9F0BCBDE8004170B50C
:1037500000F04AF9097EFC3E00F007B881EA030157
:103760004FF0000001F00041704781EA030100F0D2
:1037700089B9F0BCBDE800414FF000002149704715
:10378000FFFDFBF9F7F5F4F2F0EEEDEBE9E8E6E426
:10379000E3E1E0DEDDDBDAD8D7D5D4D3D1D0CFCDAD
:1037A000CCCBCAC8C7C6C5C4C2C1C0BFBEBDBCBBE6
:1037B000BAB9B8B7B6B5B4B3B2B1B0AFAEADACABE1
:1037C000AAA9A8A8A7A6A5A4A3A3A2A1A09F9F9EBB
:1037D0009D9C9C9B9A99999897979695959493936D
:1037E000929191908F8F8E8E8D8C8C8B8B8A898904
:1037F0008888878786858584848383828281818087
:103800000000FF070000F87F4FEA41034FEA5353DF
:10381000A3F58063D3F11E03C8BFD3F1210C0CDDE7
:103820004FF0004242EAC12242EA505232FA03FC0F
:103830008CEAE17CACEBE1707047102BC4BF002038
:10384000704703F5787CBCF1FF3F04D06FF0004275
:1038500082EA2100704770B500F0C6F849922480D2
:1038600000207047F2E710F0004248BF4042B0FA33
:1038700080F310FA03F10AD0C3F11D0303F580634E
:103880004FEA415002EB035202EBD12170474FF057
:1038900000007047DFF848C170B51CEA111E1EBF5A
:1038A0001CEA13159EEA0C0F95EA0C0F00F06F80CE
:1038B00081EA030423EA4C134EEAD47E21EA4C1138
:1038C00041F4801143F48013AE44A1FB024CA0FBF1
:1038D0000365AEF17F7E361955EB0C05A1FB034C59
:1038E0004CF10003A0FB021C16EB0C06654153F1E2
:1038F0000003094218BF46F0010613F4007F0BD104
:103900004FEA03314FEA0530340341EA155140EAEA
:1039100016506FF003020AE04FEAC3214FEAC520B8
:10392000F40241EA555140EA56506FF0020202EBB0
:103930002E4201EB025585EACE710AD05FEA440CB3
:1039400018BF24F0004450F1000041F1000120EACA
:10395000D47040F2FE7C624500D270BDA84214BF14
:103960004FF080444FF04044002E08BF0024BEF1C9
:10397000806FA8BFA1F1C041BDE8704080F2828095
:103980004FF0000001F1C04101F0004170479EEA94
:103990000C0F0CEA131518BF95EA0C0F06D04FF068
:1039A000000081EA030E0EF0004170BD00F01CF82B
:1039B0008900013E00F007B800F009B84FEA430C57
:1039C0005FEA5C5C08D081EA030100F05BB84FEA73
:1039D000410C5FEA5C5CF6D14FF000000149704792
:1039E0000000FF070000F87F0EF1020E2EF0030E1C
:1039F0005EF8046B364205D4012A43EB030515F546
:103A0000001F12D8012841EB010C1CF5001F0CD837
:103A10000ED14FEAD17C15F5001F0CEB4C0C0CF1CC
:103A2000020C08BF4CEBD37C04E04FF0080C01E023
:103A30004FEAD37C0CEB4C0526FA05F606F0070698
:103A4000B6F1040C06D20EEB860CBDE870404CF0CB
:103A5000010C6047DFE80CF0090B02024FF0004157
:103A60004FF00000A1F5002170BD19461046012855
:103A700051EB010418BFD4F5001484BF002001F0FD
:103A8000004170BD0808A0F500114FEA31017047F0
:103A900043004FEAD30C4FEA3C0C43401FBF4007A2
:103AA0000CF1605113F0FE4F70471CF0006F03D112
:103AB00000200CF0004170470CF0004343EA5070C6
:103AC00010B540EACC0000F03CFA00BF00000092C4
:103AD0004FEA0001FFF7D6BF4FF000414FF0000062
:103AE000A1F500217047000090EA010F48BF81F066
:103AF000004100F1AA82421A3CBF801A89184FEA9D
:103B0000D0524FF07F4C1CEA410FA2EBD15318BFAB
:103B10009CEA026F00F03B804FF0004C4CEA002022
:103B20004CEA012121FA03FC10EB0C0C1ED202F12D
:103B3000FF325FEA1C2040EBC25038BF70471CF0D8
:103B40007F0F4FEA400C18BFBCF17F4F38BF704762
:103B5000C3F12003994008BF20F00100BCF17F4F62
:103B600038BF7047A0F1C04000F031BA4FEA3C00C6
:103B7000000A40EBC25028BF1CF0FF0F4FEA400C78
:103B8000E6D018BFBCF17F4F38BF7047EAE79CEA28
:103B9000026F05D010EA5C0F08BF00F000407047CC
:103BA00010B500F0CEF900BF64FBBE3E401058BF18
:103BB000C0F14040491058BFC1F140418142EFF38C
:103BC000008070474FF47F0C1CEAD0121EBF1CEA25
:103BD000D11392EA0C0F93EA0C0F00F0858090EA63
:103BE000010F48BF42F4807240F4000C41F4000021
:103BF0002CF07F4120F07F4000B58142A2EB030210
:103C00000FF2081CACEB504EC0F100009EF800E033
:103C10004FEA4E0E00FB0EFC38BF49004FEA2C1C49
:103C200002F5FA020CFB0EF34FEACE1E4FEA112CFE
:103C30004FEAC1210EEB635E42EB22420EFB0CFC0D
:103C40004FEA1C5300FB03114FEA112C4FEA0131DC
:103C50000EFB0CFC4FEADC4C00FB0C11C14228BFF0
:103C600009184CEB03335DF804EB10EB410143EB17
:103C7000C250B2F57C0F38BF704729D512F0F00F53
:103C80001CBF00F1C04000F00040704700818283FB
:103C90008485868788898B8C8D8E8F91929395965B
:103CA00097999A9C9D9FA0A2A3A5A7A8AAACAEB0E5
:103CB000B2B3B5B7B9BCBEC0C2C5C7C9CCCED1D4EA
:103CC000D7D9DCDFE2E6E9ECF0F3F7FAFE0000001A
:103CD0004FEA400C0CF1807CBCF17E4F28BF70474E
:103CE000B0F1C04000F073B990EA010F0CEAD113B3
:103CF00048BF42F48072624538BF634507D213F46F
:103D00007F0F16D080EA010000F00040704710B528
:103D100000F017F9097EFC3E00F005B880EA0100CA
:103D200000F00040704780EA010000F0004000F021
:103D30004EB912F47F0F04BF0248704780EA0100B9
:103D400000F045B90000C07F41000B0ED3F19E0288
:103D500008D950F400034FEA032323FA02F048BFC6
:103D60004042704710B500F0ECF800BF4992248043
:103D7000002070476FF0004282EA20007047000088
:103D800010F0004148BF4042B0FA80F310FA03F24D
:103D9000C3F19D030BD051EAC35101EB122053062E
:103DA00038BF704700F1010008BF20F001007047E4
:103DB000B0FA80F310FA03F2C3F19D030AD0D905DB
:103DC00001EB1220530638BF704700F1010008BF15
:103DD00020F001007047000050EA010C00F1138050
:103DE0001CF5000F58BFBCF5000F01D48842704786
:103DF00007D710F5000F58BF11F5000F15D48842F2
:103E00007047894270471CF5000F04D5BCF5000FC0
:103E1000F7D5814270474FF0807C1CEB400F38BFD4
:103E20001CEB410F01D28142704710B500F089F8B8
:103E3000922449004FF000504FF08051FFF7B6BE7A
:103E40004FF47F0C1CEAD0121EBF1CEAD11392EA79
:103E50000C0F93EA0C0F00F0478090EA010F48BF67
:103E600042F480724FF0004C4CEA00204CEA0121F1
:103E700002EB0302A0FB0113A2F50002002918BF08
:103E800043F001035B0028BF4FEA330342EB2242B9
:103E90005FEA132C4CEBC2502EBFBCEB436FB2F564
:103EA0007C0F70474FEA036CBCF1004F08BF20F055
:103EB0000100B2F57C0F38BF70470BD582F0FF02CE
:103EC00012F5803FC8BF704700F1C040D8BF00F076
:103ED0000040704700F5000C5FEA4C0C48BF70478B
:103EE000B0F1C04000F073B890EA010F0CEAD113B2
:103EF00048BF42F48072624538BF634504D280EA0D
:103F0000010000F00040704710B500F01AF800BF43
:103F10008900013E00F007B800F009B85FEA410CE3
:103F20005FEA1C6C08D080EA010000F050B85FEA3C
:103F3000400C5FEA1C6CF6D14FF00040A0F5800009
:103F400070470EF1020E2EF0030E5EF8044B244271
:103F500004D44FEA4102B2F17F4F11D84FEA400337
:103F6000B3F17F4F0CD80ED14FEAD07CB2F17F4F26
:103F70000CEB4C0C0CF1020C08BF4CEBD17C04E0B8
:103F80004FF0080C01E04FEAD17C0CEB4C0324FA13
:103F900003F404F00704B4F1040C06D20EEB840C15
:103FA000BDE810404CF0010C6047DFE80CF007085A
:103FB00002024FF00040A0F5800010BD084642000C
:103FC00018BFD2F1807288BF00F0004010BDFF2101
:103FD00041EAD050C005704751EA000C00F113804F
:103FE0001CF5000F58BFBCF5000F01D4814270478B
:103FF00007D711F5000F58BF10F5000F15D48142F7
:104000007047894270471CF5000F04D5BCF5000FBE
:10401000F7D5884270474FF0807C1CEB410F38BFCA
:104020001CEB400F01D28842704780EA010081EA10
:10403000000180EA0100FFF7F8BE000090EA010FDE
:1040400048BF81F000413FF556AD421A04D882F0D6
:104050000042A0EB020011444FEAD0524FF07F4CD7
:104060001CEA410FA2EBD15318BF9CEA026F4AD061
:104070004FF0004C4CEA00204CEA012121FA03FCED
:10408000B0EB0C0C0FD412F0FE0F36D05FEA4C00F0
:104090001DD5001240EBC25038BF70471CF03F0FD7
:1040A00018BF70470BE0A2F101025FEA1C2040EB51
:1040B000C25038BF70471CF07F0F18BF7047C3F164
:1040C0002003994014BF401E20F001007047800873
:1040D0004FEA122308BF7047B0FA80FCA2EB0C0233
:1040E000CCF1280C60FA0CF093EA122F04BF00EB1D
:1040F000C25070474FEAC3707047130A5FEADC1082
:1041000008BF7047F6E79CEA026F04D010EA5C0F24
:1041100008BF0020704710B5FFF713FF40DFF63EE1
:1041200081F00040704729001401000214012900A9
:10413000000000000000000000000000000000007F
:10414000000000000000000000000000000000006F
:10415000000000000000000000000000000000005F
:10416000000000005F5F5F606060616161616162CB
:10417000626262626363636363636363646464640F
:1041800064646464646464646464646464646464EF
:1041900063636363636363636262626262626161F9
:1041A0006161606060605F5F5F5E5E5E5D5D5D5C23
:1041B0005C5C5B5B5A5A5959595858575756565573
:1041C000555454535252515150504F4E4E4D4C4CE9
:1041D0004B4A4A4948484746454544434242414084
:1041E0003F3E3E3D3C3B3A39383837363534333242
:1041F00031302F2E2D2C2B2A292827262524232227
:10420000211F1E1D1C1B1A19171615141311100F30
:104210000E0C0B0A09070605030201003C420008C8
:10422000000000209000000028010008CC42000897
:1042300090000020402E0000440100080000000013
:10424000000000000000000000000000000000006E
:10425000000000000000000000000000000000005E
:10426000000000000000000000000000000000004E
:10427000000000000000000000000000000000003E
:10428000000000000000000000000000010000002D
:10429000010000000000000000A24A04000000002D
:1042A00000000000010203040607080900000000E6
:1042B00000000000000000000000010203040102F1
:0C42C000030406070809020406080000B9
:04000005080000ED02
:00000001FF
